:020000040800F2
:10000000A060002031030008C71F0008ED1600089B
:10001000C51F0008E50C0008ED3D000800000000C9
:10002000000000000000000000000000790200084D
:10003000550D000800000000CD020008E929000865
:100040004B0300084B0300084B0300084B03000858
:100050004B0300084B0300084B0300084B03000848
:100060004B0300084B0300084B0300084B03000838
:100070004B0300084B0300084B0300084B03000828
:100080004B0300084B0300084B0300084B03000818
:100090004B0300084B0300084B0300084B03000808
:1000A0004B0300084B0300084B0300084B030008F8
:1000B000CD2D0008DD2D0008F12D00084B030008B0
:1000C0004B0300084B0300084B0300084B030008D8
:1000D0004B03000855380008693900088D3B0008BB
:1000E0004B0300084B0300084B030008192E0008BF
:1000F000BD3100084B0300082D2E00084B030008FB
:100100004B0300084B030008052E00084B030008B2
:100110004B0300086D3700084B0300084B03000831
:100120004B0300084B0300084B0300084B03000877
:100130004B0300084B0300084B0300084B03000867
:100140004B0300084B0300084B0300084B03000857
:100150004B0300084B0300084B0300084B03000847
:100160004B0300084B0300084B0300084B03000837
:100170004B0300084B0300084B0300084B03000827
:100180004B0300084B03000800F002F800F064F88D
:100190000AA090E8000C82448344AAF10107DA45E2
:1001A00001D100F059F8AFF2090EBAE80F0013F0D0
:1001B000010F18BFFB1A43F0010318471CAA0000E7
:1001C0003CAA00000A444FF0000C10F8013B13F069
:1001D000070408BF10F8014B1D1108BF10F8015BA0
:1001E000641E05D010F8016B641E01F8016BF9D193
:1001F00013F0080F1EBF10F8014BAD1C0C1B09D1EA
:100200006D1E58BF01F801CBFAD505E014F8016B5B
:1002100001F8016B6D1EF9D59142D6D370470000ED
:100220000023002400250026103A28BF78C1FBD8FF
:10023000520728BF30C148BF0B607047642900F0E7
:100240000381732900F03E82002070471FB509F03A
:10025000C6F81FBD10B510BD00F0B0FA1146FFF78B
:10026000F5FF05F059FC00F0CEFA03B4FFF7F2FFFA
:1002700003BC05F0C5FA00002A4B19680868B0E80D
:10028000F04F80F30988BFF36F8F4FF0000080F3C9
:10029000118870470000000006480068006880F37D
:1002A000088862B661B6BFF34F8FBFF36F8F00DF70
:1002B00000BF00BF08ED00E0DFF80C00016841F46A
:1002C00070010160704700BF88ED00E0EFF3098026
:1002D000BFF36F8F134B1A681EF0100F08BF20ED8D
:1002E000108A20E9F04F106008B44FF0500080F3FE
:1002F0001188BFF34F8FBFF36F8F07F0F1FB4FF003
:10030000000080F3118808BC19680868B0E8F04F55
:100310001EF0100F08BFB0EC108A80F30988BFF3FD
:100320006F8F7047A8000020EFF305807047000032
:100330000948804709480047FEE7FEE7FEE7FEE779
:10034000FEE7FEE7FEE7FEE7FEE7FEE704480549B5
:10035000054A064B70470000FD2900088901000886
:10036000A05A0020A0600020A05C0020A05C00201B
:10037000704700000FB4044910B503AA029800F0BA
:10038000A5F910BC5DF814FB940000202DE9F041A4
:100390000E460446002020622046E168884730B3BC
:1003A000252805D0D4E901219047206A401CF2E7B6
:1003B000E168204600278847050018D0A5F14100D4
:1003C000192802D820354FF40067324629462046C6
:1003D0002760FFF733FF40B1012804D0F61D26F057
:1003E00007060836D8E7361DD6E72846DAE7206A3A
:1003F000BDE8F08170B50C460546012A05D0287885
:10040000800600D5EA69002302E0012305E05B1CB9
:10041000934202D2E05C0028F9D1A869E618C01A1C
:10042000A861286A184428622846AFF3008004E0D7
:10043000D5E9012114F8010B9047B442F8D32846BE
:10044000AFF3008070BD00002DE9F04106460024A6
:1004500010687529314616A510D0AFF3008000282A
:1004600002DA404213A507E031688A0701D512A5D8
:1004700002E0490704D511A5012401E0AFF3008093
:1004800000210A2206F1240709E0B0FBF2FCB0FBD0
:10049000F2F302FB1C00303078541846491C002847
:1004A000F3D123462A463046BDE8F04100F086B835
:1004B000000000002D0000002B00000020000000C4
:1004C000032A40F2308010F0030C00F0158011F880
:1004D000013BBCF1020F624498BF11F801CB00F858
:1004E000013B38BF11F8013BA2F1040298BF00F8AC
:1004F00001CB38BF00F8013B11F0030300F0F88096
:10050000083AC0F0088051F8043B083A51F804CB8F
:10051000A0E80810F5E7121D5CBF51F8043B40F855
:10052000043BAFF30080D20724BF11F8013B11F860
:1005300001CB48BF11F8012B24BF00F8013B00F8A4
:1005400001CB48BF00F8012B704702F0FF0343EADC
:10055000032242EA024200F002B84FF000020429EE
:10056000C0F0128010F0030C00F0F680CCF1040C07
:10057000BCF1020F18BF00F8012BA8BF20F8022B16
:10058000A1EB0C0100F0E8B85FEAC17C24BF00F8E1
:10059000012B00F8012B48BF00F8012B7047704772
:1005A00070477047704710B500F0FCF8006810BD48
:1005B00010B5044600F0F6F8046010BD2DE9F047D0
:1005C0000D4699469246044600F1240801688806C3
:1005D00004D5E06921F01001216000E00120A8426B
:1005E00001DD471B00E00027A1697A1902EB090031
:1005F000081AA0612078C00602D42046AFF300801C
:10060000002608E0D4E901211AF806009047206A84
:10061000401C761C20624E45F4DB2078C0060AD5CB
:100620002046AFF3008006E0D4E901213020904756
:10063000206A401C2062381EA7F10107F4DC07E0A5
:10064000D4E9012118F805009047206A401C206277
:10065000281EA5F10105F3DC2046AFF300802078C9
:10066000000602D50220BDE8F0870120FBE700006C
:1006700001694A1C02610878704700B58FB0CDE966
:1006800001310021059105497944CDE90310114656
:100690006846FFF77BFE0FB000BD0000E5FFFFFFDF
:1006A00010B5436913B1AFF3008001E0FFF7A2FE7C
:1006B000012010BD127800F124010A7000224A7056
:1006C0000122EDE711684FF0FF32E9E7074B70B503
:1006D0000D467B44FFF7D1FF0446284600F066F83C
:1006E00010B14FF0FF3070BD204670BDEF530000D9
:1006F00010B5203AC0F00B80B1E81850203AA0E8BD
:100700001850B1E81850A0E81850BFF4F5AF5FEAF0
:10071000027C24BFB1E81850A0E8185044BF18C9A3
:1007200018C0BDE810405FEA827C24BF51F8043B4A
:1007300040F8043B08BF7047D20728BF31F8023B9E
:1007400048BF11F8012B28BF20F8023B48BF00F832
:10075000012B70474FF0000200B5134694469646B1
:10076000203922BFA0E80C50A0E80C50B1F12001C4
:10077000BFF4F7AF090728BFA0E80C5048BF0CC072
:100780005DF804EB890028BF40F8042B08BF7047D0
:1007900048BF20F8022B11F0804F18BF00F8012B42
:1007A0007047000000487047405A0020007B00F06E
:1007B0008000704700487047405A00207546FFF798
:1007C000F9FFAE4605006946534620F0070085460E
:1007D00018B020B5FFF7BAFDBDE820404FF0000685
:1007E0004FF000074FF000084FF0000B21F0070119
:1007F000AC46ACE8C009ACE8C009ACE8C009ACE85C
:10080000C0098D46704710B50446AFF300802046FE
:10081000BDE81040FFF729BD0029816802D041F0F2
:10082000010101E021F0010181607047084B10B522
:10083000D3F8042307490A40D0E900142143D0E942
:100840000240044321431143C3F8041310BD0000C8
:1008500000200140E030FCFFC06C80B270470246CF
:10086000002012680A4200D00120704730B542686B
:100870000F4B0C791A400B6842EA04221343436081
:1008800082680C4B4D791A40D1E9034323438C68AD
:1008900044EA4504234313438360C26A097D22F47A
:1008A0007002491EC9B242EA0151C16230BD000066
:1008B000FFFEFFFCFDF7FFC070B5072609290AD926
:1008C000C568A1F10A0404EB4404A640B543A34063
:1008D0001D43C56007E0056901EB4104A640B5432F
:1008E000A3401D4305611F23072A09D2446B521EF2
:1008F00002EB820293409C4391400C43446370BDE1
:100900000D2A09D2046BD21F02EB820293409C4352
:1009100091400C43046370BDC46A0D3A02EB82023D
:1009200093409C4391400C43C46270BD816841F088
:10093000804181607047000038B535489FED351A19
:100940009FED350AD0ED000A10EE810AF3EE0B0A96
:1009500080EE201ABDEEC10A10EE103A642B00DDC5
:1009600064232E48DFED2E0A90ED000A20EE200AC7
:10097000BDEEC00A10EE100A002800DA40422949F4
:1009800091ED000A20EE200ABDEEC00A10EE101A0A
:10099000002900DA4942244C2278A2B100222270B8
:1009A000224C2578012D10D0214DB5F904403AB3E1
:1009B000B5F90220B5F9001001B02346BDE830407A
:1009C0001CA0FFF7D7BC0122E9E71E4890ED000A02
:1009D0001D48BDEEC00A10EE103A90ED000A1B480B
:1009E000BDEEC00A10EE102A90ED000A18A0BDEE70
:1009F000C00A10EE101AFFF7BDFC0020207038BDB1
:100A0000CAB2C1B216A00094FFF7B4FC38BD000012
:100A10001800002000007A4400401C46C8590020FD
:100A20000000C842DC590020AC0100206901002010
:100A3000C80100207B4225643A25643A25647D2460
:100A400000000000280100202401002020010020D7
:100A50007B4325643A25643A25647D240000000028
:100A60007B4125643A25643A25643A25647D240057
:100A700030B58DB00121022001F098FC01210D025A
:100A8000284601F0ABFC032002218DF82C000A91CE
:100A900000248DF82F400AA9134800F00DFC012115
:100AA000284601F0A7FC0021284601F0A3FC06948B
:100AB00068020994CDE9070406A8FFF7B7FE8DF890
:100AC000044000948DF80540029404940120074CE2
:100AD0008DF8140069462046FFF7C8FE0121204624
:100AE000FFF79AFE0DB030BD000402400020014027
:100AF00070B58CB00121022001F058FC01214E029A
:100B0000304601F06BFC03208DF82C0001250024F9
:100B10000A958DF82F400AA9134800F0CDFB01215A
:100B2000304601F067FC0021304601F063FC06947A
:100B300068040994CDE9070406A8FFF777FE8DF84D
:100B4000044000948DF8054002940494074C8DF8FD
:100B5000145069462046FFF789FE01212046FFF721
:100B60005BFE0CB070BD000000040240002101409B
:100B70001CB504F0B3FFDFF83481DFF834A14D4C2D
:100B80004D4D4E4E4E4F40F6B83901900A2101A806
:100B900006F0D4FDD8F80400484502DA401CC8F835
:100BA000040000F0EBFCDAF800000028EED1454824
:100BB000007810B100F0FEFB10E04348007810B15F
:100BC00001F09AFC0AE0414890ED001A4048D0ED4F
:100BD000000A404890ED000A00F0BEF801F032F83B
:100BE0003D4890ED000ABDEEC00A10EE100A02F07A
:100BF00095FD28B10020034602460146009052E0D0
:100C0000D4ED020A94ED000A00F00EFF00EE100A87
:100C1000B8EEC00A84ED010AD5ED020A95ED000A8E
:100C200000F040FF00EE100AB8EEC00A85ED010AA0
:100C3000D6ED020A96ED000A00F072FF00EE100AEF
:100C4000B8EEC00A86ED010AD7ED020A97ED000A58
:100C500000F0A4FF00EE100A44F23C10B8EEC00A07
:100C600087ED010A01F02AF81C48007802288DD18E
:100C70001B480068009097ED010ABDEEC00A10EE17
:100C8000103A96ED010ABDEEC00A10EE102A95ED5D
:100C9000010ABDEEC00A10EE101A94ED010ABDEE75
:100CA000C00A10EE100A01F059FE6FE76C01002037
:100CB00030010020C8590020DC590020F0590020E4
:100CC000045A00202C0100202D0100204C0100209E
:100CD0004801002044010020180000201D010020D0
:100CE00040010020FEE700001CB50121084601F08C
:100CF0005DFB4FF48070009001208DF8040000210E
:100D00008DF8061003218DF805108DF8070069464F
:100D1000014800F0D1FA1CBD0000024030B5034686
:100D20000020012908D10022094C03E0A55C68409D
:100D3000521CD2B29A42F9D3002908D1044A323265
:100D400003E0545C6040491CC9B29942F9D330BDFC
:100D50002A0600207047000070B56E482DED0A8B02
:100D6000B0EE418AF0EE408AF0EE0CBA007802282C
:100D70007DD19FED69BA694EB6EE00CA96ED000AC4
:100D800020EE0C0A10EE100A08F0B8FA41EC1A0B2B
:100D900018EE100A08F0B2FA41EC100B04F054F807
:100DA0005F48B0EE409AF0EE609A006808F0A6FA4C
:100DB00053EC192B07F0BEFD53EC1A2B08F0B4F9D5
:100DC00007F0CAFC01EE900A9FED561ADFED560AB5
:100DD000B0EE480A06F04FF9B5EEC00AB0EE408A10
:100DE000F1EE10FA514C524D16D096ED000AF0EE8D
:100DF000610A40EE4C0A60EEA80A80EEA11AF0EEFD
:100E0000610A40EE0C0A20EEA80AC0EE210A84ED29
:100E1000021AC5ED020A03E0C4ED028AC5ED028A9A
:100E20009FED440A28EE000A10EE100A08F066FA58
:100E300041EC1A0B18EE100A08F060FA41EC100BA6
:100E40009FED3D1B03F0D8F99FED3D1B51EC100BBE
:100E500053EC112B07F05CFF41EC190B18EE100A54
:100E600008F04CFA41EC100B9FED371B00E04EE010
:100E700003F0C2F99FED361B51EC100B53EC112B14
:100E800007F046FF53EC192B07F098FC53EC1A2B94
:100E900008F04AF99FED301B53EC112B07F08EFC44
:100EA00007F05AFC00EE100ADFED2D0A2E4BF8EE8B
:100EB0000C1A70EE600A9FED2B0AB0EE6B1A00EE72
:100EC0008B0AF0EE610ABDEEC00A83ED000A94EDD4
:100ED000020A06F0D0F884ED020A95ED020AB0EE9F
:100EE0006B1AF0EE610A06F0C6F885ED020A20489A
:100EF0009FED1E0A40F6980280ED020A1D484FF44D
:100F0000487180ED020A186806F0C5F81860BDEC5B
:100F10000A8B70BD1D010020D7231F4458010020FB
:100F20005C0100200AD7A33E48E1FABEC859002060
:100F3000DC590020E5D0E23F000000000000004046
:100F400000000000D34DF43F000000000000084006
:100F5000000000809318E4BF00000000022BF93F5E
:100F60004C37C93F0080BB44400100200000000016
:100F7000F0590020045A00201CB50121082001F07E
:100F800015FA0820009000208DF8040003208DF849
:100F9000050001208DF807006946024800F08CF931
:100FA0001CBD0000000C0240F0B5012189B00846CC
:100FB00001F008FA0121032001F0F8F903258DF86A
:100FC000055002264FF400408DF8046001242B4F99
:100FD00000908DF806408DF807406946384600F0CD
:100FE0006BF98DF805508DF804608DF806408DF88A
:100FF00007400820224C00906946204600F05CF92A
:1010000001220F21384600F093F9012203212046E6
:1010100000F08EF902A802F077FB00244FF6FF7073
:10102000ADF8084003907507ADF81040ADF80A40E0
:1010300002A9284602F02AFB00231A46032128466B
:1010400002F045F905A802F0C5F9ADF81C4005A964
:10105000284602F069F90121284602F01DF9012213
:101060001146284602F0BEF90021284602F0E4FAB3
:101070000121284602F016F909B0F0BD0000024037
:101080000004024030B589B00121022001F09AF934
:101090000121022001F08AF93020039003208DF80D
:1010A000110002208DF8100001208DF81200224C52
:1010B0008DF8130003A9204600F0FEF80222042157
:1010C000204600F035F902220521204600F030F9D3
:1010D000684602F019FB00244FF6FF70174DADF87B
:1010E00000400190ADF80840ADF80240694628463E
:1010F00002F0CCFA00231A460321284602F0E7F852
:1011000005A802F067F9ADF81C4005A9284602F0D1
:101110000BF90121284602F0BFF8012211462846AA
:1011200002F060F90021284602F086FA01212846E3
:1011300002F0B8F809B030BD0004024000040040DD
:1011400030B589B00121042001F03CF901210220D1
:1011500001F02CF9C020039003208DF8110002202B
:101160008DF8100001208DF81200224C8DF813002C
:1011700003A9204600F0A0F802220621204600F034
:10118000D7F802220721204600F0D2F8684602F084
:10119000BBFA00244FF6FF70174DADF800400190E8
:1011A000ADF80840ADF802406946284602F06EFAF4
:1011B00000231A460321284602F089F805A802F008
:1011C00009F9ADF81C4005A9284602F0ADF8012147
:1011D000284602F061F801221146284602F002F981
:1011E0000021284602F028FA0121284602F05AF888
:1011F00009B030BD000402400008004030B589B09D
:101200000121082001F0DEF80121084601F0CEF8A6
:10121000274C02220021204600F08AF802220121F8
:10122000204600F085F802218DF811108DF810107D
:10123000012103208DF8121003908DF8131003A9DB
:10124000204600F039F8684602F05EFA00244FF6B6
:10125000FF70184DADF800400190ADF80840ADF8B2
:1012600002406946284602F011FA00231A4603217B
:10127000284602F02CF805A802F0ACF8ADF81C40A6
:1012800005A9284602F050F80121284602F004F88A
:1012900001221146284602F0A5F80021284602F056
:1012A000CBF90121284601F0FDFF09B030BD000057
:1012B00000000240000C0040F0B5002201274FF072
:1012C000030C0B6807FA02F52B40AB422CD10668E1
:1012D00053000CFA03F4A64306600E79D0F800E040
:1012E0009E4046EA0E0606600E79012E01D0022EBF
:1012F00012D18668A64386604E79D0F808E09E40F9
:1013000046EA0E0686604668AE43466045688E79BA
:101310009640B6B235434560C568A543C560CC79F3
:101320009C40C3681C43C460521C102AC9D3F0BD42
:101330004B07DB0E9A40C90810B500EB8100016A2B
:101340000F249C40A1430162016A1143016210BD58
:101350000183704710B50A4C01460723012220463D
:10136000FFF7AAFA2046FFF7E1FA02212046FFF72D
:1013700076FA0028F9D02046BDE81040FFF76CBA95
:101380000020014010B50A4C0146072301222046E7
:10139000FFF792FA2046FFF7C9FA02212046FFF72D
:1013A0005EFA0028F9D02046BDE81040FFF754BA95
:1013B00000210140F0B464486449027864480E7822
:1013C0000578644804789FED641A644BDFED642A65
:1013D000DFED641A644F9FED652A654897ED000ABA
:1013E0006449F1EE400A52B1012A08D0092C66D2B4
:1013F000DFE804F0654346494E5156596200092C16
:1014000024D2DFE804F02305080B1013181B20007A
:1014100080ED000A0CE080ED000A01E080ED001A8A
:10142000C3ED000A53E0C0ED000AF9E7C0ED000A81
:1014300083ED001A4BE0C0ED000A01E080ED001AD8
:1014400083ED000A43E080ED000AF9E780ED001A21
:1014500083ED001A012E04D0012D07D081ED001A72
:1014600035E0C0EE220A60EE820A03E0C0EE220AF6
:1014700060EEA10AC1ED000A29E080ED000A0CE04F
:1014800080ED000A01E080ED001AC1ED001A0EE0C7
:10149000C0ED000AF9E7C0ED000A81ED001A06E090
:1014A000C0ED000A01E080ED001A81ED002A012E56
:1014B00008D0012D09D00AE080ED000AF5E780EDA3
:1014C000001AEAE781ED002A01E0C1ED001A022AC4
:1014D00006D0032A11D0052A0FD0042A0DD01FE010
:1014E00091ED000AF0EE000A20EE200AF2EE020A68
:1014F00080EE201A81ED001A12E0D0ED000AF5EE20
:10150000C00AF1EE10FAD1ED000A03D2F1EE600A42
:10151000C1ED000A20EE800AC0EE220AC1ED000AE9
:10152000D0ED000A9FED141A80EE810A80ED000ACA
:10153000D3ED001AC1EE810AC3ED000A91ED001A45
:10154000F0BCFFF709BC00001D010020660100206F
:10155000670100202E01002000000000480100204B
:101560000000FA43DB0FC9BF20010020DB0FC93F99
:10157000440100204C01002000007A4410B50220F4
:101580002DED048B00F098FF294C2060032000F023
:1015900093FF6060042000F08FFFA060052000F042
:1015A0008BFF2449E0600978022911D194ED000AEB
:1015B0006168F8EEC09A494200EE101AB8EEC09A7F
:1015C00094ED020AF8EEC08A00EE100AB8EEC08A66
:1015D0009FED191A194869EE810A90ED000A184822
:1015E00060EE801AD0ED000A164881EEA02A69EE5E
:1015F000011A61EE801A80ED002A81EEA02A68EEC1
:10160000811A114828EE011A61EE801A21EE000AB3
:1016100080EE201A80ED002A0C4881EEA02A80ED91
:10162000002A0B4880ED001ABDEC048B10BD0000B1
:10163000185A00201D0100200000C842540100205B
:1016400050010020C8590020DC590020F05900202A
:10165000045A00202DE9F04100250E4607462C468D
:1016600008E03846FFF776FE0544052004F0E0F96F
:10167000641CE4B2B442F4D3B5FBF6F080B2BDE82A
:10168000F081000010B50820FFF77CFE07F0F0FAAB
:101690009FED0E1B53EC112B07F03AFB9FED0D1B3A
:1016A00053EC112B07F034FB9FED0C1B53EC112B6B
:1016B00007F02EFB9FED0B1B53EC112B07F028FBC3
:1016C00007F04AF800EE100A10BD00006666666674
:1016D00066660A400000000000002640000000800E
:1016E00014AEEF3F000000000000303FFEE70000B6
:1016F00070B50D4C0025C4F8A8520C48016821F4BF
:1017000040010160016841F480010160C4F8AC52FD
:10171000012004F52A7404F0A7F90120206004F0E8
:10172000A3F9256070BD0000008040420004024023
:101730001CB50121022000F039FE4FF44060012465
:1017400000908DF8044000208DF8060003208DF8ED
:1017500005008DF8074069460448FFF7ADFD0448D1
:10176000C0F8A842C0F8AC421CBD00000004024012
:101770000080404270B50D4C0026C4F8A8620C48A9
:10178000016821F440010160016841F480010160B9
:101790000125C4F8AC52284604F52A7404F064F913
:1017A0002560012004F060F9266070BD0080404291
:1017B000000402402DE9F0478146184800250168E1
:1017C00021F44001016001680160154E2C462F464E
:1017D0004FF00108C6F8A872012004F045F9C6F8D8
:1017E000A8826806D6F82C12000E11B140F001054F
:1017F00001E020F00105012004F036F9641CE4B298
:10180000082CE7D3B9F1000F04D0FFF7B3FF284647
:10181000BDE8F087FFF76CFFF9E700000004024025
:101820000080404270B50D46044600F01BF820468B
:1018300000F0B0F800F05EF8284600F0ABF800F0D9
:1018400059F800F00FF844F0010000F0A3F800F0A0
:1018500051F80120FFF7AEFF044600F02BF82046B8
:1018600070BD000070B51148016821F440010160AD
:10187000016841F4800101600D4C0120C4F8AC0204
:10188000D4F82C1200290FD0C4F8A80204F0ECF808
:101890000025C4F8AC52D4F82C02002804D1012051
:1018A00004F0E2F8C4F8A85270BD00000004024041
:1018B000008040420D4810B5016821F440010160EC
:1018C000016841F480010160094C0020C4F8A802BD
:1018D000C4F8AC02012004F52A7404F0C5F8012014
:1018E00020606060BDE8104004F0BEB80004024013
:1018F0000080404270B512480024016821F4400184
:101900000160016801600F4D0126C5F8AC623046E8
:1019100004F0AAF8C5F8A86207E0641CE4B2322C0F
:1019200003D9FFF7C7FF002070BD012004F09CF829
:10193000D5F82C020028F0D1C5F8A802012070BD0E
:1019400000040240008040422DE9F0411D4614464B
:101950000F468046069EFFF765FF621CFF21C4F11B
:10196000080301FA02F22B445B1ED9400A43C5F179
:1019700008018E40D2B2F1B2C4F10703D940104041
:1019800040EA01023946404600F034F80120BDE843
:10199000F08100002DE9F04105461448016821F46A
:1019A00040010160016841F480010160104E002790
:1019B000C6F8A8723C464FF00108E809C6F8AC0228
:1019C0006806050E012004F04FF8C6F8A882012031
:1019D00004F04AF8C6F8A872012004F045F8641C27
:1019E000E4B2082CE9D3BDE8F08100000004024015
:1019F0000080404270B515460E460446FFF732FFA0
:101A00002046FFF7C7FFFFF775FF3046FFF7C2FF1D
:101A1000FFF770FF2846FFF7BDFFFFF76BFFFFF7EB
:101A200049FF012070BD0000174830EEC00A174979
:101A3000D0ED050A174A91ED001A70EE600A1449BC
:101A400060EE810A91ED001A41EE000A90ED041A51
:101A500070EE810A10EE901AC0ED040A914203DD87
:101A6000DFED0D0AC0ED040A10EE901A0B4A914208
:101A700003D9DFED0B0AC0ED040A80ED050ABDEEC7
:101A8000E00A10EE100A70476C01002024010020CB
:101A9000280100200078824600788246007882C6BD
:101AA000007882C6174830EEC00A1749D0ED080A00
:101AB000174A91ED001A70EE600A144960EE810A2F
:101AC00091ED001A41EE000A90ED071A70EE810ABE
:101AD00010EE901AC0ED070A914203DDDFED0D0A0A
:101AE000C0ED070A10EE901A0B4A914203D9DFEDC0
:101AF0000B0AC0ED070A80ED080ABDEEE00A10EE01
:101B0000100A70476C0100202401002028010020E9
:101B10000078824600788246007882C6007882C6C5
:101B2000174830EEC00A1749D0ED0B0A174A91ED5D
:101B3000001A70EE600A144960EE810A91ED001AF5
:101B400041EE000A90ED0A1A70EE810A10EE901A2A
:101B5000C0ED0A0A914203DDDFED0D0AC0ED0A0A6D
:101B600010EE901A0B4A914203D9DFED0B0AC0ED3B
:101B70000A0A80ED0B0ABDEEE00A10EE100A70476B
:101B80006C010020240100202801002000788246FA
:101B900000788246007882C6007882C6174830EE08
:101BA000C00A1749D0ED0E0A174A91ED001A70EEDF
:101BB000600A144960EE810A91ED001A41EE000AB4
:101BC00090ED0D1A70EE810A10EE901AC0ED0D0A1C
:101BD000914203DDDFED0D0AC0ED0D0A10EE901A03
:101BE0000B4A914203D9DFED0B0AC0ED0D0A80EDDF
:101BF0000E0ABDEEE00A10EE100A70476C010020DC
:101C000024010020280100200078824600788246C6
:101C1000007882C6007882C61CB50121102000F031
:101C2000C5FB00218DF80410032101208DF805105B
:101C300000908DF8070069460148FFF73DFB1CBD89
:101C40000010024010B5322003F0DCFD02280BD159
:101C5000074906480A680260898881800649054864
:101C60000A6802608988818010BD0000D4010020CC
:101C7000DA010020E0010020E60100207CB501210E
:101C8000084600F093FB01208DF8040000228DF837
:101C9000062003218DF80510074D4FF480548DF870
:101CA0000700009469462846FFF706FB21462846B0
:101CB000FFF74EFB7CBD00000000024000EE900AE2
:101CC00041421E4AB8EEE01A00EE901A00B592EDBD
:101CD000010AF8EEE00A05F0CEF900EE900A82ED76
:101CE000010A174AB8EEE01A00EE901A92ED010AC6
:101CF000F8EEE00A05F0BFF900EE900A82ED010A65
:101D0000104AB8EEE01A00EE901A92ED010AF8EED1
:101D1000E00A05F0B0F900EE900A82ED010A0A4AE5
:101D2000B8EEE01A00EE901A92ED010AF8EEE00A21
:101D300005F0A1F982ED010A00BD0000C85900209C
:101D4000DC590020F0590020045A0020BC2801D39F
:101D5000012210E0622801D302220CE02A2801D3DC
:101D6000032208E0142801D3042204E00A2801D346
:101D7000052200E006221A21D020FFF73BBE10B555
:101D800004464FF47A70844201D9044602E0042CE0
:101D900000D20424B0FBF4F0401EC2B21921D020BE
:101DA000FFF728FE6008BDE81040FFF7CFBF10B571
:101DB00080226B21D020FFF71DFEC82003F038FEE3
:101DC00000226B21D020FFF715FE012000F03AF829
:101DD000002000F02EF83220FFF7D1FF002238213A
:101DE000D020FFF707FE00226A21D020FFF702FE75
:101DF00000222321D020FFF7FDFD80223721D020B3
:101E0000FFF7F8FD7521D020FFF70CFD682801D001
:101E1000012010BD01226B21D020FFF7EBFD002235
:101E20006C21D020FFF7E6FD3220FFF7A8FF00204D
:101E300010BD08B50223009004221C21D020FFF71A
:101E400083FD08BD08B50223009004221B21D02089
:101E5000FFF77AFD08BD000008B503F03FFE0D4C0A
:101E60004FF47A7500900A21684605F067FC2068F7
:101E7000A8420ADA401C2060606820612089A082A4
:101E8000D4F80A00E061E089208400F049F800F00D
:101E900003F8E8E7C401002070B53C21D020FFF72B
:101EA000C1FC04463B21D020FFF7BCFC04EB002022
:101EB0001A4C3E212080D020FFF7B4FC05463D217E
:101EC000D020FFF7AFFC05EB002060804021D02040
:101ED000FFF7A8FC05463F21D020FFF7A3FC05EB48
:101EE000002000B2A4F10A01A0800968B1F57A7F50
:101EF00012DB04F118032188198062885A809880C7
:101F00009B1F1D88491B21805988511A618099881F
:101F1000401A00F58040A08070BD0000CE01002076
:101F200070B54421D020FFF77DFC04464321D0202A
:101F3000FFF778FC04EB00201F4C46212080D020C6
:101F4000FFF770FC05464521D020FFF76BFC05EB41
:101F5000002060804821D020FFF764FC054647211F
:101F6000D020FFF75FFC05EB002000B2211FA0800E
:101F700009684FF47A75114A114BA94203DA01201E
:101F80001860107070BDA94201D1002111704FF48A
:101F900096711960084B21881233198062885A8023
:101FA00098809B1F1D88491B21805988511A618088
:101FB0009988401AA08070BDC80100201C01002033
:101FC00034000020FEE7704730B50F23C278017857
:101FD0000125FAB1144A126801F1E02102F4E0622D
:101FE000C2F5E062C2F30722C2F10404D340427892
:101FF000A24084781C401443220181F80024007818
:1020000000F01F018D404009800000F1E020C0F881
:10201000005130BD01F01F0085404809800000F1EB
:10202000E020C0F8805130BD0CED00E002490843CB
:1020300002490860704700000000FA050CED00E05E
:1020400010B40021084B0A46002003EBC004401CDA
:10205000C0B262548028F8D3491CC9B20829F3D30E
:1020600010BC00F0B9B80000EC01002010B57F28CA
:1020700016D83F2914D80723A3EBD10301F0070199
:10208000C1F107040121A140064CDBB204EBC00002
:10209000002AC25CC9B201D00A4300E08A43C2549C
:1020A00010BD0000EC0100207CB50121082000F0EB
:1020B0007DF901268DF8046000244FF4F0408DF87E
:1020C000064000908DF805408DF80740694640486D
:1020D000FFF7F2F80121080700F074F9012000F081
:1020E0005FF9002000F0DAF9002000F059F9394DCD
:1020F000C5F8B042642005F52C7503F099FC2E60FC
:102100000021AE2000F02AF90021D52000F026F9A8
:102110000021502000F022F90021A82000F01EF933
:1021200000213F2000F01AF90021D32000F016F919
:102130000021084600F012F90021402000F00EF9BD
:1021400000218D2000F00AF90021142000F006F98A
:102150000021202000F002F90021022000F0FEF80A
:102160000021A12000F0FAF80021C02000F0F6F8CC
:102170000021DA2000F0F2F80021122000F0EEF841
:102180000021812000F0EAF80021EF2000F0E6F8BD
:102190000021D92000F0E2F80021F12000F0DEF863
:1021A0000021DB2000F0DAF80021302000F0D6F822
:1021B0000021A42000F0D2F80021A62000F0CEF8E3
:1021C0000021AF2000F0CAF8FFF73AFF7CBD000005
:1021D000000C02400080414270B5104E002505F110
:1021E000B000C0B2002100F0B9F80021084600F0AC
:1021F000B5F80021102000F0B1F8002406EBC4006F
:102200000121405D00F0AAF8641CE4B2802CF5D3F3
:102210006D1CEDB2082DE2D370BD0000EC01002072
:102220002DE9F04F203A98460D468346894602F044
:10223000FF0A00262EE0B8F10C0F08D0174901EB79
:102240000A100027845D200607D5099A08E0144982
:102250000AEB4A0001EB8000F3E7099890B10022F5
:1022600029465846FFF702FF6D1C6006EDB2040ECA
:10227000A5EB0901414507D10BF101004D4600F0E6
:10228000FF0B05E00122EBE77F1CFFB2082FDAD33A
:10229000761CF6B24645CED3BDE8F08F56990008BD
:1022A000E29400082DE9FF4F81B00027DDF838B037
:1022B0001D46924680463C464FF001094FEA5B06B8
:1022C00027E0281B401EC1B20A2003F041FCBAFBE4
:1022D000F0F00A21B0FBF1F201FB120027B9691EF0
:1022E0008C4201DA48B101273030C2B206FB0480CB
:1022F000C0B25B46CDF8009006E006FB0480C0B299
:102300005B462022CDF800900299FFF789FF641CFC
:10231000E4B2AC42D5D305B0BDE8F08FF8B51646AF
:102320000D460446012714E07A2C02D9002410350A
:10233000EDB23A2D03D900242546FFF781FE009720
:1023400032780C2329462046FFF76AFF0834E4B2AE
:10235000761C30780028E7D1F8BD000030B50023A6
:102360000E4A012411B1C2F8AC4201E0C2F8AC320D
:102370000021C2F8B832050602D5C2F8B44201E025
:10238000C2F8B432C2F8B8424006491C000EC9B2C5
:102390000829EED3C2F8AC4230BD000000804142B3
:1023A000014908627047000000000E42044A0029FB
:1023B000116801D0014300E08143116070470000C3
:1023C00030380240044A0029116801D0014300E07E
:1023D000814311607047000040380240044A0029E0
:1023E000116801D0014300E0814311607047000093
:1023F00044380240044A0029116801D0014300E03A
:1024000081431160704700002438024070B5204BB2
:102410001968204C11F00C0104D06610042903D077
:10242000082903D004601BE0066019E0184A121F57
:102430001168C1F38055116801F03F0115B1B6FB79
:10244000F1F101E0B4FBF1F114681268C4F38814EF
:102450006143C2F30142521C5200B1FBF2F1016030
:1024600019680F2202EA11110B4A545C0168E1401D
:1024700041601C68072505EA9424145D21FA04F4E0
:1024800084601B6805EA5333D25CD140C16070BDE3
:10249000083802400024F40098000020054900227A
:1024A0000A700A70012802D0042801D105200870A2
:1024B00070470000703802400021022807D003282E
:1024C0000BD004280BD005280BD0002070474FF00C
:1024D0008042506A516200B27047044A02E0044AE6
:1024E00000E0044A1068116000B270472404004004
:1024F00024080040240C00402DE9F0414FF4FA6616
:10250000614B771032463946186804F0C4FD5F4DC0
:10251000186032463946286804F0BDFD5C4C2860DE
:1025200032463946206804F0B6FD3246594E2060E6
:102530003946306804F0AFFD30602A6821681B68B6
:102540006FF06304A2F2DC52A0F2DC50A1F2DC5185
:10255000A3F2DC53A24202DD642A00DA0022A04288
:1025600002DD642800DA0020A14202DD642900DADD
:102570000021A34202DD642B00DA002300EE101AD2
:10258000454CB8EEC00AD4ED000A30EE800ABDEE2C
:10259000C00A10EE101A002900DA00214FF4FA7573
:1025A0004A4392FBF5F24042484390FBF5F000EEBF
:1025B000102ADFED3C1A394CF8EEC00A00EE100A82
:1025C0005842374DB8EEC01A00EE100A374AC4ED33
:1025D000000AB8EEC00A364885ED001A20EE212A1E
:1025E000DFED311A82EE210A82ED000A007850B147
:1025F000012808D002280DD0032812D0052810D0B9
:1026000004280ED022E002EE101AB8EEC22A20EE04
:10261000020A17E0F0EE001A20EE210AF2EE021A8A
:1026200010E0F5EEC00AF1EE10FA03D2B1EE400A66
:1026300082ED000AB0EE402A00EE101AB8EEC00A91
:1026400022EE000A80EE212A82ED002A9FED190A6F
:102650001949C0EE801AC1EE000AC4ED001AC5ED9A
:10266000000A087838B19FED150A401E84ED000A73
:1026700082ED000A087092ED001A94ED000ABDE8A0
:10268000F041FEF769BB000050000020540000201C
:10269000580000205C0000202001002044010020A0
:1026A00048010020DB0FC93F0000FA434C01002025
:1026B0001D01002000007A446C0100200000000091
:1026C00010B551EC100B2DED068BB0EE439AF0EEE9
:1026D000629AB0EE42AAF0EE618AB0EE418A06F04C
:1026E0003BF8BDEECA0A154910EE102ABDEEE90A04
:1026F000086081ED018A10EE103AC1ED058AC1E94A
:10270000022381ED049A9900514300EE101A0C49FE
:10271000B8EEC00A81ED000A9FED0A0A0A4929EEC7
:10272000000A81ED000A09490860094880ED008A25
:102730000848C0ED008ABDEC068B10BD285A002069
:1027400050010020DB0F49405401002058010020B7
:102750005C0100206001002070B5394C4FF4AD7071
:102760000A2120600920FEF775FF2168354C90FB97
:10277000F1F0C0B22070052801D905202070C0B248
:10278000DFED312A9FED311A9FED313A062819D23B
:10279000DFE800F0030E252E353EF0EE411A9FEDE6
:1027A0002D3AB3EE0E2A9FED2C1A9FED2C0B07E06D
:1027B0009FED2C3AB3EE0E2ADFED2B1A9FED2B0B7B
:1027C000FFF77EFF2578042208242A482A49072398
:1027D000062D30D2DFE805F0252830302C30F0EE21
:1027E000411AB3EE0E2A9FED251A9FED250BE7E760
:1027F000B3EE0E2AF0EE411A9FED230BE0E7F0EE68
:10280000411AB3EE0E2A9FED221A9FED220BD7E755
:102810009FED223AB3EE0E2AF0EE411A9FED200B07
:10282000CEE704600E2005E0062202600A2001E0E7
:1028300004600B20086070BD02600B6070BD00007A
:102840003C0100201D0100200000FA4300000000B0
:10285000B81E853D9A99993D7B14AE3D022B871693
:10286000D9CEB73F8FC2753D643BDF3D000000000D
:10287000000000003401002038010020BC74133E29
:10288000000000806ABCC43F000000A0EFA7C63F64
:10289000E926313E000000C09DEFC73FC520303D16
:1028A000000000E07A14CE3F0CB5002227490092C8
:1028B0000192086840F4803008604FF4A043086833
:1028C00000F4003001900098401C0090019810B96D
:1028D00000989842F3D10868800334D50120019014
:1028E0001A484030026842F080520260184802687C
:1028F00042F44042026015480830026802600268F3
:1029000042F400420260026842F4A0520260031FD7
:10291000104A1A600A6842F080720A600A689201DE
:10292000FCD50D4940F205720A60016821F00301EF
:102930000160016841F0020101600168C1F3810199
:102940000229FAD10CBD01920CBD000000380240F2
:102950000070004008544007003C0240F0B5174E9C
:10296000174F059D44F29F14002803DA3460204479
:10297000386002E03C60201A30601248002903DA17
:1029800044632144816302E08463611A41630E4819
:10299000002A03DA84631119416302E04463A11A37
:1029A0008163002B03DA04641919C16302E0C46374
:1029B000E11A016405480560F0BD0000344401409F
:1029C00034480140004001400000014038180040F8
:1029D0004FF0E0210428086903D020F004000861CA
:1029E000704740F00400FAE710B505F04DFC0128EF
:1029F00003D0BDE8104005F03BB910BD124810B53A
:102A0000016841F4700101601048016841F0010162
:102A100001600E4A00210832116002680C4B1A4016
:102A20000260031D0B4A1A60026822F480220260D1
:102A300006480C300160FFF737FF03494FF0006094
:102A40008039086010BD000088ED00E000380240C9
:102A5000FFFFF6FE1030002470B5048C24F0010452
:102A60000484058B048C4FF6FF7606EA03131343A8
:102A700025F0F3052B4324F00A020A4342F001013A
:102A80000383018470BDF0B5048C24F01004048429
:102A9000078B068C4FF6FF7404EA011527F4734781
:102AA00004EA0331394304EA02220A4326F0A00172
:102AB000294341F0100102830184F0BD2DE9F0416A
:102AC000884607468AB001210220FFF76FFC0121EA
:102AD0004804FFF783FC1F4E032208213046FEF70F
:102AE00027FC02208DF804000024C0018DF8064068
:102AF000012500908DF8075003208DF805006946E8
:102B00003046FEF7D9FB144EADF808800397ADF8B8
:102B10001040ADF80A4002A9304600F0B7FD602031
:102B2000ADF81400ADF81650ADF8204005A93046B8
:102B300000F060FC0821304600F092FC0121304694
:102B400000F0A0FB0121304600F0ACFB0AB0BDE86C
:102B5000F081000000040240004401402DE9F041F2
:102B6000884607468AB001210220FFF71FFC012199
:102B70008804FFF733FC214E032209213046FEF77B
:102B8000D7FB02208DF80400002400028DF80640D7
:102B9000012500908DF8075003208DF80500694647
:102BA0003046FEF789FB164EADF808800397ADF866
:102BB0001040ADF80A4002A9304600F067FD6020E1
:102BC000ADF81400ADF81650ADF8204005A9304618
:102BD00000F010FC0821304600F042FC0121304694
:102BE00000F06AFB0121304600F04CFB0121304629
:102BF00000F058FB0AB0BDE8F0810000000402407C
:102C0000004801402DE9F041884606468AB001217E
:102C10004020FFF7D7FB01210220FFF7C7FB02206E
:102C20008DF818004FF44040059003208DF81900EE
:102C30000024264F8DF81A4001258DF81B5005A958
:102C40003846FEF739FB09220E213846FEF770FBA5
:102C500009220F213846FEF76BFB08961C4EADF893
:102C60001C80ADF82440ADF81E4007A9304600F0A6
:102C70000DFD6020ADF80000ADF802500294ADF8F3
:102C80000C40ADF810406946304600F0B3FB694691
:102C9000304600F0EBFB0821304600F0E1FB082154
:102CA000304600F02DFC0121304600F005FB0121EB
:102CB000304600F0F7FA064940F2DC50383108603F
:102CC000091F08600AB0BDE8F0810000000402405E
:102CD000001800402DE9F0418846074601218AB0DE
:102CE0000846FFF77BFB01211020FFF75FFB354E05
:102CF000012209213046FEF71BFB01220B21304641
:102D0000FEF716FB01220D213046FEF711FB0122D2
:102D10000E213046FEF70CFB4FF4D4400590022004
:102D20008DF8180003208DF8190000248DF81A4042
:102D300001258DF81B5005A93046FEF7BDFA224E3D
:102D4000ADF81C800897ADF82450ADF81E4007A9D7
:102D5000304600F09BFC6020ADF80000ADF802505A
:102D6000ADF80C406946304600F044FB69463046F9
:102D700000F07CFB6946304600F0CCFB69463046EB
:102D800000F016FC0121304600F096FA082130468A
:102D900000F066FB0821304600F0B2FB0821304607
:102DA00000F000FC0821304600F03CFC01213046D8
:102DB00000F068FA0121304600F074FA0AB0BDE86C
:102DC000F081000000100240000001404FF0804000
:102DD000018A018A21F001010182704703480188BC
:102DE000018821F0010101807047000010040040BB
:102DF00003480188018821F001010180704700002B
:102E00001008004003480188018821F00101018079
:102E100070470000100C004003480188018821F031
:102E20000101018070470000101800402DE9F047B3
:102E30008C4800248169B1F5C86F0FDD8A490A7892
:102E400062B98A4A1268B2F57A7F07DB01220A70FA
:102E500087490C7087490C7087490C708046007850
:102E6000864D000642F20F764FF4FA772DD40221F8
:102E7000284600F04DFA40B30221284600F00FFA30
:102E800098F80000400628463DD500F039FA80B297
:102E9000A8F80600B8F804104246884201D25663EA
:102EA00000E05463401A516B08445061516A401A63
:102EB00000D54042B84200DD51615069506288F847
:102EC00000400021284600F0C5FA98F801000006ED
:102ED0003AD40421284600F01BFAA8B3042128465E
:102EE00000F0DDF998F80100400628464AD500F0C8
:102EF00009FA80B2A8F80A00B8F8081042468842D9
:102F00000ED296630DE000F0FBF90146A8F804101C
:102F100098F8001041F0400188F800100221D1E734
:102F20009463401A916B08449061916A401A00D5ED
:102F30004042B84200DD91619069906288F801409A
:102F40000021284600F0D2FA98F8020000063AD490
:102F50000821284600F0DCF9A8B30821284600F033
:102F60009EF998F80200400628464BD500F0CCF9AF
:102F700080B2A8F80E00B8F80C10424688420ED273
:102F8000D6630DE000F0BEF90146A8F8081098F8E5
:102F9000011041F0400188F801100221D1E7D4630B
:102FA000401AD16B0844D061D16A401A00D5404222
:102FB000B84200DDD161D069D06288F802400021BA
:102FC000284600F0E5FA98F80300C146000647D409
:102FD0001021284600F09CF9002841D01021A84675
:102FE000284600F05CF999F803004D4640062BD5C1
:102FF000404600F08BF980B26882298A88420ED25E
:103000002E640DE000F080F90146A8F80C1098F845
:10301000021041F0400188F802100221D0E72C6430
:10302000401A296C08442862296B401A00D5404296
:10303000B84200DD2962286A2863EC70002140460E
:10304000BDE8F04700F0E4BA4446404600F05EF9BF
:103050002882E878022140F04000E8702046EFE73F
:10306000BDE8F0873C0000202D010020C4010020B5
:103070002C010020640100206501002000040140B3
:103080002DE9F041884605468AB001210220FFF76C
:10309000A5F901210420FFF789F94FF47070022689
:1030A00003908DF8106003208DF811000024414F2B
:1030B0008DF812408DF8136003A93846FEF7FCF82E
:1030C000032206213846FEF733F90322072138464A
:1030D000FEF72EF9032208213846FEF729F90322CC
:1030E00009213846FEF724F9334FADF814800695D0
:1030F000ADF81C40ADF8164005A9384600F0C6FAF8
:1031000001250F20ADF80040ADF80450ADF80800DF
:10311000ADF80240ADF806406946384600F004F9C3
:103120000420ADF80000ADF80450ADF80240ADF851
:103130000640ADF808406946384600F0F5F808202A
:10314000ADF80000ADF80450ADF80240ADF806400F
:10315000ADF808406946384600F0E6F80C20ADF8B6
:103160000000ADF80450ADF80240ADF80640ADF8EF
:1031700008406946384600F0D7F82E208DF8200028
:103180008DF821608DF822608DF8235008A8FEF795
:103190001BFF01221E21384600F024F90121384688
:1031A00000F08AF80121384600F07CF80AB0BDE84A
:1031B000F08100000008024000040140024801883C
:1031C00021F0010101807047100401402DE9F04316
:1031D0008946804601218BB00804FFF7FFF80121E2
:1031E0001020FFF7E3F8254F032205213846FEF7AC
:1031F0009FF8032206213846FEF79AF802208DF840
:10320000180003208DF81900002460268DF81A405C
:10321000012505968DF81B5005A93846FEF74CF898
:10322000174FADF81C90CDF82080ADF82440ADF8D4
:103230001E4007A9384600F029FAADF80060ADF845
:103240000250ADF80C406946384600F0D3F86946A4
:10325000384600F00BF90821384600F001F9082142
:10326000384600F04DF90121384600F00BF80121F5
:10327000384600F017F80BB0BDE8F08300100240AC
:10328000004001400029018802D041F0800101E0A6
:1032900021F0800101807047C94301827047C94312
:1032A000018270470029018802D041F0010101E04C
:1032B00021F0010101807047002930F8441F02D03D
:1032C00041F4004101E0C1F30E010180704770B587
:1032D0000589048B068C25F007050D434FF6FC414C
:1032E0000C4040F201110C434FF6FF7101EA03114B
:1032F00026F022061143314305810483018470BD09
:10330000406B7047806B7047C06B7047006C7047B4
:1033100002460020138A92890B4202EA010202D07F
:10332000002A00D0012070472DE9F0410C460E889C
:103330004988A2882389054616B3042E28D0082E72
:103340002E8C4FF6FF702BD026F480562E84AF8B38
:103350002E8C00EA022200EA013127F473473A4337
:1033600000EA0330104326F420420A4342F480511D
:10337000A8832984E1882846BDE8F04100F07AB9A5
:10338000FFF76AFBE1882846BDE8F04100F056B936
:10339000FFF779FBE1882846BDE8F04100F056B917
:1033A00026F480762E84AF8B2E8C00EA012100EA71
:1033B0000310104327F0F307384326F420620A4332
:1033C00042F48071A8832984E1882846BDE8F04151
:1033D00000F048B900210180418001228280C18033
:1033E00001817047002A828901D00A4300E08A43A4
:1033F0008281704730B5028C22F001020284028C77
:103400008388048B22F0020224F073050C882C437D
:103410008D8915434A882A430C4DA84202D00C4D91
:10342000A8420DD122F00805CA8923F440732A432B
:1034300022F004058A882A430D8A1D434B8A2B43B8
:103440008380048389684163028430BD00000140A9
:1034500000040140028C22F002020A4302847047F9
:10346000028B22F008020A430283704770B5028C77
:1034700022F010020284028C8388048B0D8824F4CD
:10348000E6464FF6FF7404EA052535438E8922F09F
:10349000200204EA061616434A8804EA021232435E
:1034A000104EB04202D0104EB04215D122F080062C
:1034B000CA8923F4406304EA0212324322F0400630
:1034C0008A8804EA021232430E8A04EA86061E4300
:1034D0004B8A04EA830333438380058389688163CD
:1034E000028470BD0000014000040140028C4FF6D0
:1034F000FF7322F0200203EA011111430184704797
:10350000028B4FF6FF7322F4006203EA012111439C
:103510000183704770B5028C22F480720284028CA1
:103520008388848B0D8824F0730425438E894FF69D
:10353000FF7422F4007204EA062616434A8804EA5D
:1035400002223243104EB04202D0104EB04215D18A
:1035500022F40066CA8923F4405304EA022232436B
:1035600022F480668A8804EA022232430E8A04EA40
:1035700006161E434B8A04EA031333438380858374
:103580008968C163028470BD0000014000040140ED
:10359000028C4FF6FF7322F4007203EA01211143FB
:1035A00001847047828B22F008020A4382837047AD
:1035B00070B5028C22F480520284058C8288838B41
:1035C0000C8823F4E6464FF6FF7303EA04243443E1
:1035D00025F400568D8903EA053535434E8803EA04
:1035E00006362E43084DA84202D0084DA84205D108
:1035F00022F480450A8A03EA82122A438280848365
:1036000089680164068470BD000001400004014027
:10361000028C4FF6FF7322F4005203EA013111438A
:1036200001847047828B4FF6FF7322F4006203EA35
:10363000012111438183704741627047028B22F060
:103640000C020283028B0A4302837047028B22F42E
:1036500040620283028B4FF6FF7303EA01210A43A3
:1036600002837047828B22F00C028283828B0A4392
:1036700082837047828B22F440628283828B4FF672
:10368000FF7303EA01210A438283704730B5028841
:10369000164C174DA0420DD0A8420BD0B0F1804F70
:1036A00008D0144B984205D0134B984202D0134BCC
:1036B000984203D122F070034A881A43104B984273
:1036C00006D0104B984203D022F440730A891A4363
:1036D00002804A68C2620A880285A04201D0A842DC
:1036E00001D1897A01860121818230BD000001402B
:1036F000000401400004004000080040000C0040AD
:1037000000100040001400404FF0FF3141600021E4
:103710000180018141808172704700000A2809DB25
:103720000C48D0F80C0228B10B480078012801D0D1
:1037300000207047094A012000211160084A1160E9
:10374000084A51639163084A916391631164D1639C
:1037500070470000008041421C01002034440140B9
:1037600034480140004001400000014070B52D4C3C
:1037700040F22551204600F0A7FAE0B3204600F0C1
:1037800031FBC1B228480068B0F57A7F43DB284A94
:10379000264C002590797B29215400D028B1401C6B
:1037A000C0B290710B2802D035E0957133E095716D
:1037B000A07A7D282FD100210920FDF7AFFA617A88
:1037C000884228D11B4805701B4805701B480570AE
:1037D0001B4805702179E07800F060FB194D85EDFC
:1037E000000AA179607900F059FB174880ED000AC2
:1037F000217AE07900E00EE000F050FB1348144E0F
:10380000F0EE400A0078022807D0217AE07900F033
:1038100045FB86ED000A002070BD95ED000A00F022
:10382000E7FAF6E700500040700100205C06002037
:10383000800000202D0100202C01002065010020C7
:10384000A801002044010020480100201D010020A3
:103850004C01002070B5314D40F22551284600F052
:1038600033FA002852D000240126284600F0BAFA84
:10387000C1B22B480068B0F57A7F47DB2A4B294D4F
:10388000002218787B29295400D028B1401CC0B2EE
:1038900018700B2802D039E01A7037E01A70A87A35
:1038A0007D2833D10020295C401C4C400928FADBDC
:1038B000687AA04200D04EBB1C48017829B901218A
:1038C00001701B4802701B4802701B480270297966
:1038D000E87800F0E3FA194C84ED000AA9796879D8
:1038E00000F0DCFA164880ED000A297AE87900F049
:1038F000D5FA1448144EF0EE400A0078022807D09A
:10390000297AE87900F0CAFA86ED000A002070BD35
:1039100094ED000A00F06CFAF6E700000010014098
:1039200070010020EC0500208000002064010020D0
:103930002C0100202D010020A801002044010020BE
:10394000480100201D0100204C01002000B5054B5E
:103950000022985C03F018FD521CD2B2182AF8D34A
:1039600000BD00002A0600202DE9F04140F225515B
:103970002DED048B714800F0A7F9002874D06F4832
:10398000001D00886E490968B1F57A7F6CDB012162
:1039900000246C4D41280CD12A79412A09D16A4A68
:1039A000137833B9694B1C701170694A1470694AF5
:1039B0001470C3B2684A694FDFF8A4C1694E2B7115
:1039C0004B2808D0492808D04A2806D036782EB18E
:1039D000012E0BD01EE031700CE03470A0F14106D6
:1039E000072E26D9082814DC137013E0432809D0C9
:1039F00047280BD03C708CF80040412819D045284E
:103A000017D006E03C708CF8001002E039708CF89A
:103A1000004014709FED540A544A9FED559A554E3C
:103A200058280AD059280DD07B2817D07D281CD0C3
:103A30000EE0A0F140061670ECE7D6ED000A30EE7D
:103A4000800A03E0D6ED000A30EEC00A86ED000AD7
:103A50006878012803D0022809D060E06970A8784E
:103A60001354401CA8705AE062E002206870D078BD
:103A7000502806D05078232848D0A878E87090467F
:103A80002AE03D48017041E0A978081A05F0D9F80C
:103A900041EC110B9FED390B00F0AEFBEF78B0EE6F
:103AA000408A08EB0700F0EE608A10F8010C30380D
:103AB00005F0C7F853EC182B05F02AF941EC180B68
:103AC000A86805F01BFC53EC182B04F077FE04F0FB
:103AD00043FE7F1EA860EF70E8780428D4D298F8DF
:103AE00001003038032811D2DFE800F002070B0094
:103AF00095ED020A86ED000A08E095ED020A2148DC
:103B000002E095ED020A204880ED000A6C70AC706E
:103B1000EC7085ED029A32211448FCF71EFD96EDFB
:103B2000000AB5EEC00AF1EE10FA01D286ED009A55
:103B30000020BDEC048BBDE8F08100000044004093
:103B4000C4010020800000202C0100202D01002055
:103B500064010020650100202E0100206601002084
:103B600067010020680100200000C842F70500201E
:103B7000000000002001002069010020000000007A
:103B800000002440240100202801002070B52E4CA4
:103B900040F22551204600F097F8E8B3204600F0A7
:103BA00021F9C1B229480068B0F57A7F45DB294A7E
:103BB000274C002550797B29215400D028B1401C86
:103BC000C0B250710B2802D037E0557135E0557105
:103BD000A07A7D2831D100210920FDF79FF8617A74
:103BE00088422AD11C4805701C4805701C48057085
:103BF0001C4805701C4805702179E07800F04EF9EA
:103C00001A4D85ED000AA179607900F047F918484E
:103C100080ED000A217A00E00FE0E07900F03EF943
:103C20001448154EF0EE400A0078022807D0217A99
:103C3000E07900F033F986ED000A002070BD95EDC3
:103C4000000A00F0D5F8F6E70048004070010020B7
:103C50005C060020800000202D0100202C010020A7
:103C60006401002065010020A8010020440100201B
:103C7000480100201D0100204C01002000B5054B2B
:103C80000022985C03F088FB521CD2B2182AF8D3A9
:103C900000BD00002A06002000B5054B0022985CFC
:103CA00003F084FB521CD2B2182AF8D300BD0000E6
:103CB0002A0600200029818902D041F4005101E048
:103CC00021F400518181704770B501F01F05012674
:103CD0000024C1F3421306FA05F2012B0FD0022B88
:103CE0000FD0838A4FEA11210088134206FA01F6A9
:103CF00000EA060001D000B10124204670BD83898E
:103D0000F0E7038AEEE710B5C1F3421301F01F0498
:103D10000121A140012B07D0022B07D01430002A2B
:103D2000026805D00A4304E00C30F8E71030F6E7EB
:103D30008A43026010BD00007FB50446008A0D462C
:103D4000C98820F4405001432182A08941F20C61CE
:103D50008843A9882A8911436A8902431143A181B2
:103D6000A08A20F44071A8890843A0826846FEF723
:103D70004DFB1A48844202D01948844201D103986D
:103D800000E00298A189090400EBC00101EB0010DA
:103D9000296801D5490000E08900B0FBF1F06422F8
:103DA000B0FBF2F109010B096FF018056B4300EB52
:103DB0008300A3891D044FF0320306D503EBC00036
:103DC000B0FBF2F000F0070005E003EB0010B0FBE1
:103DD000F2F000F00F00084320817FBD0010014089
:103DE000001401408088C0F308007047FEE700001F
:103DF00010B52DED048BB0EE608AB0EE409ADFED89
:103E0000238AB5EEC08AF1EE10FA3CD0B5EEC09A26
:103E1000F1EE10FA37D089EE080A01F04BFEB4EE4D
:103E2000E80AF1EE10FA0FD8B5EEC08AF1EE10FAFA
:103E3000B0EE490A02DD01F03DFE03E001F03AFE7A
:103E4000B1EE400A80EE288A1148B6EE001A90EDD5
:103E5000000A1048C9EE080A40EE010A90ED001A67
:103E600081EE200A10EE100A05F048FA41EC100B22
:103E700000F056F851EC100B04F06EFC00EE100A46
:103E8000BDEC048B10BD9FED040AF9E73333B33E5C
:103E9000580100205C0100200000000070B501EB1B
:103EA000002004B24FF47A7594FBF5F005FB104046
:103EB0002DED028B04F0C5FE9FED0B1B53EC112B77
:103EC00004F026FF41EC180B94FBF5F004F0B9FE6A
:103ED00053EC182B04F072FC04F03EFCBDEC028B9A
:103EE00000EE100A70BD0000FCA9F1D24D62503FF7
:103EF00003B401984100009850EAC12018BF042083
:103F00004A0D18BF40F0010040F2FF72B2EB515F62
:103F100008BF40F00200012808BF052002B070472A
:103F200070B59B482DED020B2DED068B079D25F0FE
:103F30000044A04218DC9748844202DC0AD106986B
:103F400040B19DED060BBDEC068B02B0BDE87040A4
:103F500001F012BC002DCCBF9FED8F0B9FED900B9D
:103F6000BDEC068B02B070BD8F48A04215DD8F48B6
:103F7000A042D8BF4FF0FF3458DD9DED060B51EC49
:103F8000100BFFF7B5FF042808BF01F029FC9DEDD9
:103F9000060BBDEC068B02B070BD9DED060B51EC1F
:103FA000100B01F07BFDCDE9060181489FED828B6E
:103FB000A0423CDD8248A0421FDD00249FED82AB81
:103FC0009DED060B53EC1A2B51EC100B04F0F6FB95
:103FD0009DED060B41EC190B53EC1A2B51EC100B19
:103FE00004F096FE53EC182B05F09EF853EC192BB9
:103FF00004F0A0FCCDE9060149E09DED060B01248B
:1040000053EC182B51EC100B04F0D8FB9DED060B74
:1040100041EC190B53EC182B51EC100B05F084F804
:1040200053EC192B04F086FCCDE906012FE068481B
:10403000A0421FDD02249FED689B9DED060B53EC13
:10404000192B51EC100B04F063FE53EC182B04F009
:10405000B5FB9DED060B41EC180B53EC192B51EC05
:10406000100B05F061F853EC182B04F063FCCDE95C
:1040700006010CE09DED060B032453EC102B9FED85
:10408000580B51EC100B04F055FCCDE906019DEDE9
:10409000060B53EC102B51EC100B04F039FE41ECE5
:1040A000180B53EC182B04F033FE41EC190B4E485F
:1040B0000621B0EE490AF0EE690A784401F020F9D1
:1040C00053EC182B51EC100B04F022FE41EC180BB2
:1040D0004648B0EE490AF0EE690A0521784401F03D
:1040E0000FF953EC192B51EC100B04F011FE41ECBD
:1040F000100B51EC180B53EC102B002C0EDA04F0C3
:104100005DFB9DED061B53EC112B04F001FE9DEDB4
:10411000061B53EC112B04F02FFF35E004F04EFB8F
:104120009DED061B53EC112B04F0F2FD41EC100B3E
:104130002F48784400EBC40090ED001B51EC100BAD
:1041400053EC112B04F0F0FF9DED061B53EC112BEB
:1041500004F0EAFF41EC100B2648784400EBC40061
:1041600090ED001B51EC100B53EC112B04F004FFED
:1041700041EC100B002DA2BFBDEC068B02B070BD50
:1041800051EC100B04F0DCFA41EC100B01E70000DD
:10419000000010440000F07F182D4454FB21F93F2B
:1041A000182D4454FB21F9BF0000DC3F0000203EE5
:1041B0000000F33F00000000000000000000F03F9E
:1041C0000000E63F0000000000000000000000408A
:1041D0000080034000000000000000000000F83FE5
:1041E000000000000000F0BF32690000E868000035
:1041F000726800002A6800002DE9F04D2DED040BD7
:104200002DED0E8B96B0DDE92550279CDDF890A0B2
:1042100025F0004624F00048BAF1000F14BF012138
:10422000002101EB4502FC4953184A1093422AD35E
:10423000002814BF0123002303EB44030B44F74978
:104240008B4220D358EA00019FEDF59B76D0DFF832
:10425000D8B35D4503D1BAF1000F05D188E0BAF1BA
:10426000000F08BF002100D0012101EB450111F52D
:10427000001F08D8002814BF0121002101EB4401D0
:1042800011F5001F0BD99DED261B9DED240B16B0DB
:10429000BDEC0E8B04B0BDE8F04D01F077BA0027FD
:1042A000002DBCBFE149884521DAE1498845A8BF16
:1042B00002271CDAC3451ADCDE4901EB2851142918
:1042C00008DDC1F1340220FA02F101FA02F2824261
:1042D0000DD108E058B9C1F1140228FA02F101FA2F
:1042E00002F2424503D101F00101C1F1020756EA91
:1042F0000A0124D1002C22DA002D18BF022F01D090
:10430000012F0AD00220FCF753F916B0BDEC0E8B3A
:1043100004B0BDE8F04D01F017BA0220FCF748F9EF
:1043200001F012FA51EC100B04F00AFA41EC100BF8
:1043300016B0BDEC0E8B04B0BDE8F08D18E09FED1B
:10434000BEAB9FEDBF8B002871D1B848804522D10C
:1043500005F1804010F5801008BFBAF1000F07D0BA
:10436000B3450ADC002CA8BF9DED260BE0DA0DE07A
:10437000B0EE490AF0EE690ADAE7002C06DA9DEDA4
:10438000260B51EC100B04F0DBF96FE0AE487844DB
:1043900090ED000BCCE7D8454DD1002C48DA2EB17A
:1043A00086423AD1BAF1000F42D126E0BAF1000FAD
:1043B00013D00220FCF7FCF801F002FA8DED020B9D
:1043C0009DED240B8DED000B10EE900A039961F327
:1043D0001E0003909DED020BAAE78DED02AB9DED53
:1043E000240B1AEE901A10EE900A8DED000B61F37B
:1043F0001E0003909DED020B9AE78DED028B9DED63
:10440000240B18EE901A10EE900A8DED000B61F35C
:104410001E0003909DED020B8AE709DA9DED240B47
:1044200051EC190B53EC102B04F084FA1EE020E041
:104430009DED240B7CE786421BDAB4F1804F0DD052
:10444000A4F10050B0F1FF5013D1002D11DB9DED10
:10445000240B51EC100B02F01FFD07E09DED240B27
:1044600053EC102B51EC100B00F0C2BC41EC100BC4
:104470005EE79DED240B51EC100B01F00FFBBAF140
:10448000000FCDE90E0142D19FED710B46B3A6F1AD
:10449000E040B0F17F600CD05E4538D1002D00DAED
:1044A000A7B3022F0CBF01204FF0FF3004F0C9FB6F
:1044B000DCE7002D01DD002C0DDA002D01DD002CE4
:1044C0001FDB002D16DA002C14DB012F08BF9FED37
:1044D000620B3FF42DAFB0EE4A0AF0EE6A0A27E70E
:1044E000022F18BF002D0CD0012F0AD1002DFFF68E
:1044F0001FAF06E0002DB8BF002C08DA012F3FF4F3
:1045000017AFB0EE480AF0EE680A11E71BE0012091
:1045100000EBE57050EA070115D0791EB0EE498A2C
:10452000F0EE698A084308BF9FED4D8B4E48002589
:10453000804570DD4D494E48884514DDB0420DDBA5
:10454000002C19DB2FE00120FCF732F816B0BDEC8F
:104550000E8B04B0BDE8F04D01F022B9B34502DC8A
:10456000002C09DC1FE0864202DA002C1BDA03E093
:104570005E452BDD002C16DD0220FCF719F801F05A
:104580001FF98DED020B53EC1A2B51EC180B04F0B4
:10459000BFFBCDE900010399019861F31E00039070
:1045A0009DED020BC4E60220FCF702F801F018F9B9
:1045B00010EE901A18EE900A8DED020B8DED008B27
:1045C00061F31E0003909DED020BB1E69DED0E0B15
:1045D00053EC192B51EC100B04F0A6FD9FED260BAC
:1045E000CDE9080153EC102B9DED080B51EC100B9D
:1045F00004F08EFB9FED221B53EC112B04F0BCFC4E
:104600009DED081B53EC112B04F082FB9FED1E1B4C
:1046100053EC112B3CE08CE0FFFF1F00FFFF0F006D
:10462000000000000000F03F0000F03F0000F07FBD
:104630000000404301FCFFFF000000000000F07F8D
:1046400000000000000000001667000000000000ED
:104650000000000000000080000000000000F0FFEB
:10466000000000000000F0BF0000E0410000F04347
:10467000FFFFEF3F00000000000000000000D03FFF
:10468000555555555555D53F000000000000E03FF9
:1046900004F072FC9DED080B41EC1A0B53EC102B4F
:1046A00051EC100B04F034FB53EC1A2B04F030FBEC
:1046B00041EC1A0B9FEDFE0B53EC102B9DED080BFC
:1046C00051EC100B04F024FB41EC1B0B9FEDFA0B9B
:1046D00051EC1A0B53EC102B04F01AFB41EC1A0BA3
:1046E0009FEDF70B53EC102B9DED080B51EC100BCD
:1046F00004F00EFB53EC1A2B04F016FD41EC1A0BE0
:1047000051EC1B0B53EC1A2B04F058F80690CDE932
:1047100006519DED060B53EC1B2B51EC100B04F0D6
:1047200003FD53EC1A2B04F027FC41EC100B00F0B6
:10473000A1B90020B6F5801F0EDA9FEDE30B53EC14
:10474000102B9DED0E0B51EC100B04F0E1FACDE9AE
:104750000E016FF034000E4600EB2650A0F2FF373A
:10476000C6F31300DA4940F07F6646F040568842AF
:10477000D8BF002408DDD7498142C8BF012403DC2B
:104780000024A6F580167F1CD348784400EBC400B3
:104790000F9690ED00CB9DED0E0B53EC1C2B51ECC6
:1047A000100B04F0C1FC9DED0E0B41EC1B0B53EC08
:1047B0001C2B51EC100B04F001F841EC100B51ECE8
:1047C000190B53EC102B04F0B5F841EC1D0B51EC18
:1047D0001B0B53EC1D2B04F09BFA41EC1A0BBF484A
:1047E0008DED10AB7844109590ED000B4FF000501C
:1047F00040EA660000EB84408DED080B00F50020D8
:1048000009909DED080B53EC1C2B51EC100B04F0A0
:104810008BFC9DED0E1B53EC112B04F0ADFB41EC1A
:10482000100B53EC102B9DED100B51EC100B04F002
:104830006FFA9DED080B41EC1C0B53EC102B9DED1A
:10484000100B51EC100B04F063FA53EC1B2B04F02B
:1048500093FB53EC1C2B04F067FC53EC1D2B04F072
:1048600057FA41EC1C0B53EC1A2B51EC1A0B04F0C9
:104870004FFA41EC1B0B9A480621B0EE4B0AF0EEC2
:104880006B0A784400F03CFDB0EE401AF0EE601A7E
:10489000B0EE41DAF0EE61DA53EC1B2B51EC1B0B5E
:1048A00004F036FA53EC1D2B04F032FA9DED100B98
:1048B00041EC1B0B53EC1A2B51EC100B03F07EFF59
:1048C00053EC1C2B04F024FA53EC1B2B03F076FF63
:1048D0009DED100B41EC1B0B53EC102B51EC100B0E
:1048E00004F016FA41EC1D0B9FED7FEB53EC1E2BF1
:1048F00003F064FF53EC1B2B03F060FF0890CDE93D
:1049000008519DED080B53EC1E2B51EC100B04F0DD
:104910000BFC53EC1D2B04F007FC53EC1B2B04F099
:104920002BFB9DED080B41EC1D0B53EC102B9DED6B
:10493000100B51EC100B04F0EBF941EC1B0B53EC9A
:104940001A2B51EC1D0B04F0E3F99DED080B41EC23
:104950001A0B53EC102B51EC1C0B04F0D9F953EC4F
:104960001A2B03F02BFF41EC1A0B51EC1B0B53ECF1
:104970001A2B03F023FF0C90CDE90C519DED0C0B8D
:1049800053EC1B2B51EC100B04F0CEFB53EC1A2B09
:1049900004F0F2FA41EC1B0B9FED550B53EC102B7E
:1049A0009DED0C0B51EC100B04F0B2F941EC1A0B1D
:1049B0009FED510B51EC1B0B53EC102B04F0A8F99D
:1049C00041EC1B0B9FED4E0B53EC102B9DED0C0B94
:1049D00051EC100B04F09CF953EC1B2B03F0EEFE92
:1049E00041EC100B4848784400EBC40090ED001BEC
:1049F00051EC100B53EC112B03F0E0FE41EC1B0BC0
:104A0000384604F01EF9CDE9080153EC1B2B51EC9C
:104A10001A0B03F0D3FE41EC100B3C48784400EB3A
:104A2000C40090ED00CB51EC100B53EC1C2B03F0A9
:104A3000C5FE9DED081B53EC112B03F0BFFE069045
:104A4000CDE906519DED080B53EC102B9DED060BA7
:104A500051EC100B04F068FB53EC1C2B04F064FBCE
:104A600053EC1A2B04F060FB53EC1B2B04F084FA7C
:104A700041EC100B9DED261B53EC102B8DED001B14
:104A800000959DED260B51EC100B04F041F99DEDC6
:104A9000000B41EC1A0B53EC102B9DED260B51EC47
:104AA000100B04F041FB9DED061B53EC112B2FE086
:104AB000000000604715F73FFE822B654715F73F62
:104AC00044DF5DF80BAE543E0000000000004043A0
:104AD0008E9803007AB60B0092620000C06200005C
:104AE000CA61000000000000000000000000084053
:104AF000000000E009C7EE3FFD033ADC09C7EE3FC6
:104B0000F5015B14E02F3EBE56600000106000000F
:104B100004F0FEF853EC1A2B03F050FE9DED060B4B
:104B200041EC1A0B53EC102B9DED000B51EC100BCC
:104B300004F0EEF8CDE90C019DED0C0B51EC1A0BD5
:104B400053EC102B03F03AFECDE902010C46AA49C2
:104B50008C422FDB611A084318D19DED0C0B53ECEE
:104B6000102B9DED020B51EC100B04F0DDFA41EC23
:104B70001B0B9FEDA30B51EC1A0B53EC102B03F006
:104B80001DFE53EC1B2B04F0C1F92DD20220FBF7C4
:104B90000FFD00F015FE10EE901A18EE900A8DED44
:104BA000020B8DED008B61F31E0003909DED020B57
:104BB000FFF7BEBB944A24F00041914214D39349BD
:104BC000214408437FF4EFAC9DED0C0B53EC102B0C
:104BD0009DED020B51EC100B04F0A6FA53EC1A2BCE
:104BE00004F094F97FF6DFAC24F000408849894A4C
:104BF000002601EB205182422BDA481C4FF4801131
:104C000021FA00F02044844AC0F30A517A44A1F208
:104C1000FF3192ED000B814A8DED080BCA4020EA6E
:104C20000202C0F3130040F48010C1F1140120FA15
:104C300001F60992002CB8BF76429DED080B53ECAB
:104C4000102B9DED0C0B51EC100B04F06DFACDE91F
:104C50000C019DED0C0B51EC1A0B53EC102B03F0D7
:104C6000ADFD9FED6F0B0890CDE9085153EC102B73
:104C70009DED080B51EC100B04F04AF841EC1B0BB6
:104C80009FED690B53EC102B9DED080B51EC100BB5
:104C900004F03EF89DED0C0B41EC1C0B53EC102B7B
:104CA0009DED080B51EC100B04F03EFA53EC1A2B5F
:104CB00004F062F99FED5E1B53EC112B04F028F811
:104CC00053EC1C2B03F07AFD41EC1A0B51EC1B0B3F
:104CD00053EC1A2B03F072FDCDE902019DED020B9E
:104CE00053EC1B2B51EC100B04F01EFA53EC1A2B57
:104CF00004F042F99DED020B41EC1A0B53EC102B22
:104D000051EC100B04F004F8CDE908014A489DED80
:104D1000080B0521784400F0F3FA9DED081B51ECD7
:104D2000100B53EC112B03F0F3FF9DED021B53EC22
:104D3000112B04F021F9CDE906019DED020B53EC96
:104D40001A2B51EC100B03F0E3FF53EC1A2B03F07A
:104D500035FD9FED3B0B41EC1A0B53EC102B9DEDF9
:104D6000060B51EC100B04F0DFF99DED060B41EC46
:104D70001B0B53EC102B9DED020B51EC100B03F0B1
:104D8000C7FF53EC1B2B03F0D5FD53EC1A2B04F09B
:104D9000CBF99DED021B53EC112B04F0C5F953EC3C
:104DA000192B04F0E9F8CDE9020101EB06500115D9
:104DB0000029C8BF039015DC9DED020B324651EC73
:104DC000100B04F048FBFFF793F8042808BF00F02D
:104DD00007FD32469DED020B51EC100B04F03BFB3E
:104DE000CDE902019DED020B51EC180B53EC102B99
:104DF00003F08EFFFFF73ABB000090400000000078
:104E0000FE822B654715973C00CC904000346F3FE5
:104E100001FCFFFF0000E03F985E0000FFFF0F0075
:104E200000000000432EE63F396CA80C615C20BEF8
:104E3000EF39FAFE422EE63F685D000000000000F8
:104E4000000000000000004010B51D499FED1A1B36
:104E50002DED020B84B0059820F000408842DCBFA5
:104E600001209DED040B21DD1649884209D10498EB
:104E700040B94FF00100FBF79BFB00F091FC06B03E
:104E800010BD05DB9DED040B00F076FC06B010BDF7
:104E900068469DED040B00F017F800F001000121B9
:104EA000A1EB40009DED021B9DED000B00F0A4FA6C
:104EB00006B010BD0000000000000000000000006F
:104EC000FB21E93F0000F07F2DE9F14F04462DED75
:104ED000020B2DED088B8AB09FEDE70B80ED020BE6
:104EE000139EE74826F0004585420ADC9DED120B33
:104EF000002084ED000B0AB0BDEC088B03B0BDE8C8
:104F0000F08FE0489FEDE0AB9FEDE1BBA84247DDAD
:104F1000E14F9FEDE39B9FEDE48B9DED120B53EC76
:104F20001A2B51EC100B002E1CDD04F0FDF841ECA7
:104F3000100BBD4208D053EC1B2B51EC100B04F0AE
:104F4000F3F8C4E900010BE053EC192B51EC100B02
:104F500004F0EAF853EC182B04F0E6F8C4E9000179
:104F60000120C8E703F02AFC41EC100BBD4208D039
:104F700053EC1B2B51EC100B03F020FCC4E9000197
:104F80000BE053EC192B51EC100B03F017FC53EC16
:104F9000182B03F013FCC4E900014FF0FF30AAE71F
:104FA000C348A84279DB9DED120B51EC100B00F0C9
:104FB00075FD41EC180B9FEDC00B53EC102B03F06B
:104FC000A7FE9FEDBF1B53EC112B03F0F7FB03F083
:104FD00009FE074603F035FE41EC190B53EC1A2B82
:104FE00003F096FE53EC182B03F0C6FF41EC180BB0
:104FF00053EC1B2B51EC190B03F08AFEDFF8C8A20F
:1050000041EC100B4FEA15580125FA4453EC102BD4
:1050100051EC180B04F088F8032DC4E900013DD0D1
:10502000C1F30A5005EB4511A8EB0000113981428C
:1050300034DA0AEB051BB0EE48AA9BED000BF0EE4C
:1050400068AA53EC102B51EC190B03F061FE41ECF4
:105050001B0B51EC1A0B53EC1B2B04F065F841ECC5
:10506000180B51EC1A0B53EC182B04F05DF853ECB1
:105070001B2B04F059F89BED020B41EC1A0B53EC7F
:10508000102B51EC190B03F043FE53EC1A2B04F0D8
:105090004BF841EC100B6D1CB8E70EE0002EA8BFDA
:1050A0003846BFF628AF94ED000B51EC100B03F01F
:1050B00047FBC4E9000178421DE7C6F3130040F442
:1050C000801EC6F30A50A0F2F530471100F01F050C
:1050D000C5F12000DDF848B0089000200690079048
:1050E0000520EC467949002D07EB0002794408BF02
:1050F00051F8221009D051F8223001EB8201AB4067
:105100004A68089922FA01F11943A1FB0E26A1FB76
:105110000B131A449A4234BF0123002303EB060801
:105120000CEB8003D3E901A60E448E4234BF01216B
:10513000002192448A4411B1924502D903E092457C
:1051400001D2012100E00021C3E901A641444CF84D
:105150002010011EA0F10100C4DC029800F10050F3
:10516000850F0298DDE903678000DDF8148003F005
:1051700068FD41EC1A0B304603F07AFD9FED541B9D
:1051800053EC112B03F0C4FD41EC1B0B384603F02C
:105190006FFD9FED511B53EC112B03F0B9FD41EC5A
:1051A000180B404603F064FD9FED4D1B53EC112B93
:1051B00003F0AEFD41EC190B51EC180B53EC192B1D
:1051C00003F0FCFA53EC1B2B03F0F8FA53EC1A2B08
:1051D00003F0F4FACDE90801002008909DED080BDA
:1051E00053EC1A2B51EC100B03F09EFF53EC1B2BCE
:1051F00003F09AFF53EC182B03F096FF53EC192B96
:1052000003F0BAFE9FED381B53EC112B03F080FD29
:105210009FED370B41EC180B53EC102B9DED080B59
:1052200051EC100B03F074FD53EC182B03F0C6FA8D
:105230009FED310B41EC180B53EC102B9DED080B3F
:1052400051EC100B03F064FD53EC182B03F0B6FA8D
:1052500041EC100B139810F0004F06D06D4251EC4A
:10526000100B03F06DFA41EC100B284684ED000B97
:1052700041E6000000000000000000000000000007
:10528000FB21E93F7CD9024000004054FB21F93F5B
:105290003163621A61B4D03DFB21F93F0000000088
:1052A0000000601A61B4D03D7370032E8A19A33BCD
:1052B000FB2139410000000083C8C96D305FE43F25
:1052C000000000000000E03FA25A0000F05900007A
:1052D000000000000000103E000000000000103C34
:1052E000000000000000103A182D4454FB21F93D45
:1052F0003326A611460B113C00000054FB21F93D5A
:1053000070B504462DED028B4D1E00EBC500B0EECE
:10531000408AF0EE608A90ED000B35F0060017D061
:1053200053EC182B51EC100B03F0F2FC41EC100B7A
:105330006D1E04EBC50090ED001B51EC100B53ECFF
:10534000112B03F03BFA41EC100B35F00600E7D1CE
:10535000022D36D0042D1CD0062D1CBFBDEC028BB7
:1053600070BD53EC182B51EC100B03F0D1FC94EDF5
:105370000A1B53EC112B03F021FA53EC182B03F00A
:10538000C7FC94ED081B53EC112B03F017FA41EC0A
:10539000100B53EC182B51EC100B03F0B9FC94EDEF
:1053A000061B53EC112B03F009FA53EC182B03F0F6
:1053B000AFFC94ED040B53EC102B03F0FFF941EC20
:1053C000100B53EC182B51EC100B03F0A1FC94EDD7
:1053D000021B53EC112B03F0F1F953EC182B03F0E3
:1053E00097FC94ED001B53EC112B03F0E7F9BDEC97
:1053F000028B41EC100B70BDF1B506462DED040B90
:10540000BD482DED0C8B8AB0B0EE418AF0EE618A7A
:10541000179D25F000449FEDBABB9FEDBBCB8442A6
:1054200008DA9DED160B51EC100B03F0DBFB0028A6
:1054300000F0E980B64FA74231DC002D0DDA9DED7A
:10544000160B51EC100B03F07BF9CDE9160151EC72
:10545000180B03F075F941EC180B9FEDAF0B53ECF3
:10546000102B9DED160B51EC100B03F085FD53EC4A
:10547000182B9FEDAB0BCDE9040151EC100B03F0A1
:1054800053FE41EC100B53EC102B9DED040B51EC33
:10549000100B03F093F99FEDA48BCDE916019DED60
:1054A000160B53EC102B51EC100B03F031FCCDE933
:1054B00004019DED040B53EC102B51EC100B03F089
:1054C00027FC41EC190B9A480621B0EE490AF0EE90
:1054D000690A7844FFF714FF9648B0EE40DAF0EE20
:1054E00060DAB0EE490AF0EE690A06217844FFF767
:1054F00007FF9DED041B51EC100B53EC112B03F037
:1055000007FC9DED040B41EC1A0B53EC102B9DEDA9
:10551000160B51EC100B03F0FBFB41EC190B53EC99
:105520001A2B51EC1D0B03F049F953EC192B03F026
:10553000EFFB53EC182B03F041F99DED041B53ECEA
:10554000112B03F0E5FB53EC182B03F037F941EC7A
:10555000180B9FED790B51EC190B53EC102B03F04A
:10556000D7FB53EC182B03F029F941EC190B9DEDF7
:10557000160B53EC192B51EC100B03F01FF941ECF7
:10558000180BA74269DC304603F05BFB41EC1A0BB9
:1055900051EC180B53EC1A2B03F010F941EC1B0BD8
:1055A00053EC182B51EC180B03F0B2FB53EC1B2BF4
:1055B00003F0C0F953EC192B03F0B6FD9DED161B5B
:1055C00053EC112B03F0D8FC9FED5D1B53EC112B1A
:1055D00003F09EFB53EC1A2B03F0CEFC41EC180BAE
:1055E000022000EAA570C0F1010003F02AFB53EC91
:1055F000182B03F08DFB00BF41EC100B0AB0BDEC83
:105600000C8B05B0F0BD711C1698214308430CD0DB
:105610009DED160B012E1CBF53EC102B51EC1C0BF7
:1056200010D000BF03F086F9E6E79DED160B51ECB4
:10563000100B00F033FA41EC100B51EC1B0B53EC48
:10564000102BEFE751EC100BFEF752FC042808BFBB
:1056500000F0C6F89DED160BD0E7012E04BFB0EEAA
:10566000480AF0EE680AC9D08DED048B002404943A
:105670009DED040B53EC102B9DED160B51EC100B14
:1056800003F07AFC53EC192B03F076FC41EC190B78
:1056900053EC182B51EC1C0B03F04CF941EC180B9C
:1056A0008DED008B00949DED040B53EC102B9DEDC4
:1056B000000B51EC100B03F02BFB53EC1B2B03F0F6
:1056C0007DF89DED000B41EC1A0B53EC192B51ECBE
:1056D000100B03F01DFB53EC1A2B03F06FF853EC87
:1056E000182B03F015FB9DED001B53EC112B03F061
:1056F00065F881E7000000000000303E0000000077
:10570000000000000000F03F000000000000F0BFBB
:105710002894E53F00000000182D4454FB21E93F88
:10572000075C143326A6813C000000000000000046
:10573000A2560000B8560000635555555555D53F43
:1057400000000000000000409FED070B10B553EC77
:10575000102B9FED070B51EC100B03F0EBF841EC15
:10576000100B10BD00000000000000000000000051
:10577000000000000000F03F10B553EC102B51EC7E
:10578000100B03F01BF841EC100B10BD10B553ECDF
:10579000112B51EC100B03F011F841EC100B10BD64
:1057A0009FED050B10B553EC102B51EC100B03F0D3
:1057B000C1F841EC100B10BD00000000000000001B
:1057C0009FED050B10B553EC102B51EC100B03F0B3
:1057D0009FFA41EC100B10BD0000000000000070AB
:1057E0009FED050B10B553EC102B51EC100B03F093
:1057F0008FFA41EC100B10BD0000000000000010FB
:105800007047000030B5204AD2F800421F4B0021FB
:105810002CB1D981D2F80052012425B106E0DC89EF
:10582000641CDC81F6E71D7905B91C715D794DB901
:105830001D79012D03D19D796D1C9D715C719C7941
:10584000022C04D0D2F80022012A04D005E099717C
:105850009981022030BD197159719A79012A11D1AB
:105860009A89521C92B29A81824206D9DA8982427E
:1058700003D299719981012030BDDA89824201D920
:1058800099719981002030BD000042422000002023
:1058900008B500F023F900903221684601F04EFF70
:1058A00000F008F8FEF752F8FEF7E8F9FEF7F4F911
:1058B000F2E70000F0B5464C7B277D20277684F880
:1058C0002E0044484FF0000E00789FED431A022846
:1058D00022D14248B6EE002A90ED000A4048D0EDB1
:1058E000000A70EE201A70EEC00A61EE821A61EEB4
:1058F000811AFDEEE11A11EE900A60833948A4F88E
:105900001CE0D0ED001A80EEA10A20EE010ABDEEE7
:10591000C00A10EE100AE0833348DFF8D0C0344EDE
:10592000B0F902506584018849420BB2A384B0F9F2
:105930000420E284BCF902102185BCF8000040423A
:1059400000B260853678E6B3A4F82CE0DFF8A4C096
:105950009CED000A20EE010ABDEEC00A10EE10CA4E
:10596000A4F820C027706670668B370AA770E670AF
:10597000A68B370A27716671E68B370AA771E67125
:105980002E0A267265721D0AA572E372130A23732A
:1059900062730A0AA273E173010A21746074A08D14
:1059A000010AA174E0744FEA1C20207584F815C028
:1059B00001211620FBF7B2F9A07594F82E00E075CE
:1059C000F0BDFFE7BCF804C0A4F82CC0BEE700009F
:1059D0002A0600201D01002000007A44C85900203A
:1059E000DC59002058010020CE010020C801002011
:1059F0001C0100201800002010B504460420FCF70C
:105A0000E7FF0A484FF47A71047014FB01F1012298
:105A100042804FF0E020026942F0020202614161DF
:105A2000016941F00101016110BD00008C000020FE
:105A300070B5044602F028FC01280CD0094D688896
:105A4000844203D3B4FBF0F001F042FE6888B4FB5B
:105A5000F0F100FB11444FF47A706043BDE87040F0
:105A600000F002B88C00002070B54FF0E025002156
:105A70006C69094AAB6912785043AA699A42FCD012
:105A800002D2A3EB020302E0A4EB02063344194462
:105A900013468142F1D370BD8C00002082B0CDE965
:105AA000000121F0004001909DED000B02B051EC8F
:105AB000100B7047B5EEC00AF1EE10FA01DAB1EE44
:105AC000400A704704490A885206FCD5024AC1B20E
:105AD000121D1180704700000044004010B502F014
